{
  "transactions": [
    {
      "hash": "0x7644bcc1b24556beff3061e9f35b6587066c72f98657ece306234dc73f9a8bb0",
      "transactionType": "CALL",
      "contractName": null,
      "contractAddress": "0xe15ade4ddad16f355d1ca6e5dc96e6b7f661bd62",
      "function": "giveVoteAccess(address[])",
      "arguments": [
        "[0x1aA686b438F89BC5246673B4aCAAA9B78BaC0Aac, 0x9627D6E3742524753aD1f98d024c1917db143978]"
      ],
      "transaction": {
        "from": "0x9627d6e3742524753ad1f98d024c1917db143978",
        "to": "0xe15ade4ddad16f355d1ca6e5dc96e6b7f661bd62",
        "gas": "0x1a1a5",
        "value": "0x0",
        "input": "0x61cd30b1000000000000000000000000000000000000000000000000000000000000002000000000000000000000000000000000000000000000000000000000000000020000000000000000000000001aa686b438f89bc5246673b4acaaa9b78bac0aac0000000000000000000000009627d6e3742524753ad1f98d024c1917db143978",
        "nonce": "0x5",
        "chainId": "0x14a34"
      },
      "additionalContracts": [],
      "isFixedGasLimit": false
    }
  ],
  "receipts": [
    {
      "status": "0x1",
      "cumulativeGasUsed": "0x820047",
      "logs": [
        {
          "address": "0xe15ade4ddad16f355d1ca6e5dc96e6b7f661bd62",
          "topics": [
            "0x9b6a455a5658c11539ae0c585401a323231c71c64ad10427c4dfea5c5f709f4d",
            "0x0000000000000000000000009627d6e3742524753ad1f98d024c1917db143978",
            "0x0000000000000000000000001aa686b438f89bc5246673b4acaaa9b78bac0aac"
          ],
          "data": "0x",
          "blockHash": "0xd5abdaaea14fddac36a7ae4cf75bc8ea53d6d571da6e4c16dfccf650f277434c",
          "blockNumber": "0x21cc231",
          "blockTimestamp": "0x694ce342",
          "transactionHash": "0x7644bcc1b24556beff3061e9f35b6587066c72f98657ece306234dc73f9a8bb0",
          "transactionIndex": "0xf",
          "logIndex": "0x110",
          "removed": false
        },
        {
          "address": "0xe15ade4ddad16f355d1ca6e5dc96e6b7f661bd62",
          "topics": [
            "0x9b6a455a5658c11539ae0c585401a323231c71c64ad10427c4dfea5c5f709f4d",
            "0x0000000000000000000000009627d6e3742524753ad1f98d024c1917db143978",
            "0x0000000000000000000000009627d6e3742524753ad1f98d024c1917db143978"
          ],
          "data": "0x",
          "blockHash": "0xd5abdaaea14fddac36a7ae4cf75bc8ea53d6d571da6e4c16dfccf650f277434c",
          "blockNumber": "0x21cc231",
          "blockTimestamp": "0x694ce342",
          "transactionHash": "0x7644bcc1b24556beff3061e9f35b6587066c72f98657ece306234dc73f9a8bb0",
          "transactionIndex": "0xf",
          "logIndex": "0x111",
          "removed": false
        }
      ],
      "logsBloom": "0x00000000000000000000000000000000000000000000000000000000000000000000000000000000000000000000000000000000000000000000000000000000000000000000800000000000000000000000000000000000000000000000000000000000000000000000000000020000000000000000000000000000000200040000000000000000000000000000000000000000001000000000000100000000000008000000000000000000000000000000000000000000000000000000000000000000000000000000000080000000000000000000000000000000810000000000000000000000000000001000000000100000000000000000000000000000",
      "type": "0x2",
      "transactionHash": "0x7644bcc1b24556beff3061e9f35b6587066c72f98657ece306234dc73f9a8bb0",
      "transactionIndex": "0xf",
      "blockHash": "0xd5abdaaea14fddac36a7ae4cf75bc8ea53d6d571da6e4c16dfccf650f277434c",
      "blockNumber": "0x21cc231",
      "gasUsed": "0x12e5f",
      "effectiveGasPrice": "0x3ba0412",
      "blobGasUsed": "0x8880",
      "from": "0x9627d6e3742524753ad1f98d024c1917db143978",
      "to": "0xe15ade4ddad16f355d1ca6e5dc96e6b7f661bd62",
      "contractAddress": null,
      "daFootprintGasScalar": "0x138",
      "l1BaseFeeScalar": "0x44d",
      "l1BlobBaseFee": "0x1",
      "l1BlobBaseFeeScalar": "0xa118b",
      "l1Fee": "0x101",
      "l1GasPrice": "0x5d",
      "l1GasUsed": "0x702"
    }
  ],
  "libraries": [],
  "pending": [],
  "returns": {},
  "timestamp": 1766646593132,
  "chain": 84532,
  "commit": "02e8788"
}