{
  "transactions": [
    {
      "hash": "0xd5a0e05664eaa8cc7a7572c2f9f6ff6d63ec8c39713aecf285af878af7a5f4ff",
      "transactionType": "CALL",
      "contractName": null,
      "contractAddress": "0x6480e90c148c59217e88b8c0b9122053668210c6",
      "function": "giveVoteAccess(address[])",
      "arguments": [
        "[0x62A1F309111eeB59cef1Bfeb0ea5B3FbD6935B1D]"
      ],
      "transaction": {
        "from": "0x9627d6e3742524753ad1f98d024c1917db143978",
        "to": "0x6480e90c148c59217e88b8c0b9122053668210c6",
        "gas": "0x1287d",
        "value": "0x0",
        "input": "0x61cd30b10000000000000000000000000000000000000000000000000000000000000020000000000000000000000000000000000000000000000000000000000000000100000000000000000000000062a1f309111eeb59cef1bfeb0ea5b3fbd6935b1d",
        "nonce": "0x15",
        "chainId": "0x14a34"
      },
      "additionalContracts": [],
      "isFixedGasLimit": false
    }
  ],
  "receipts": [
    {
      "status": "0x1",
      "cumulativeGasUsed": "0xd5007",
      "logs": [
        {
          "address": "0x6480e90c148c59217e88b8c0b9122053668210c6",
          "topics": [
            "0x9b6a455a5658c11539ae0c585401a323231c71c64ad10427c4dfea5c5f709f4d",
            "0x0000000000000000000000009627d6e3742524753ad1f98d024c1917db143978",
            "0x00000000000000000000000062a1f309111eeb59cef1bfeb0ea5b3fbd6935b1d"
          ],
          "data": "0x",
          "blockHash": "0xaa4d384d3f045fd6dc697644d549b1dc8e29430044427866f9e4dfb1ac8d35a9",
          "blockNumber": "0x21d844b",
          "blockTimestamp": "0x694e6776",
          "transactionHash": "0xd5a0e05664eaa8cc7a7572c2f9f6ff6d63ec8c39713aecf285af878af7a5f4ff",
          "transactionIndex": "0x3",
          "logIndex": "0x28",
          "removed": false
        }
      ],
      "logsBloom": "0x00000000000000000000000000000000000000000000004000000000000000000000000000000000000000000000000000000002000000000000000000000000000000000000800000000000000000000000000000000000000000000000000000000000000000000000000000000000000000000000000000000000000000040000000000000000000000000000000010000000000000000000000000000000000008000000000000080000000000010000000000000000000000000000000000000000000000000000100080000000000000000000000000000000800000000000000000000000000000001000000000000000000000000000000000000000",
      "type": "0x2",
      "transactionHash": "0xd5a0e05664eaa8cc7a7572c2f9f6ff6d63ec8c39713aecf285af878af7a5f4ff",
      "transactionIndex": "0x3",
      "blockHash": "0xaa4d384d3f045fd6dc697644d549b1dc8e29430044427866f9e4dfb1ac8d35a9",
      "blockNumber": "0x21d844b",
      "gasUsed": "0xcabb",
      "effectiveGasPrice": "0x124f80",
      "blobGasUsed": "0x79e0",
      "from": "0x9627d6e3742524753ad1f98d024c1917db143978",
      "to": "0x6480e90c148c59217e88b8c0b9122053668210c6",
      "contractAddress": null,
      "daFootprintGasScalar": "0x138",
      "l1BaseFeeScalar": "0x44d",
      "l1BlobBaseFee": "0x3bfed8bf",
      "l1BlobBaseFeeScalar": "0xa118b",
      "l1Fee": "0xf83bdfb37",
      "l1GasPrice": "0x7578310",
      "l1GasUsed": "0x640"
    }
  ],
  "libraries": [],
  "pending": [],
  "returns": {},
  "timestamp": 1766745972596,
  "chain": 84532,
  "commit": "8f3700d"
}