{
  "transactions": [
    {
      "hash": "0x4487fb73da94672b7a07dab917da8298e1b5c67b2cc36fb12bf0b406cfb61c1b",
      "transactionType": "CALL",
      "contractName": null,
      "contractAddress": "0xc9da4aee367c76b1baa18d8a999fbec91e394aff",
      "function": "giveVoteAccess(address[])",
      "arguments": [
        "[0x9627D6E3742524753aD1f98d024c1917db143978]"
      ],
      "transaction": {
        "from": "0x9627d6e3742524753ad1f98d024c1917db143978",
        "to": "0xc9da4aee367c76b1baa18d8a999fbec91e394aff",
        "gas": "0x1287d",
        "value": "0x0",
        "input": "0x61cd30b1000000000000000000000000000000000000000000000000000000000000002000000000000000000000000000000000000000000000000000000000000000010000000000000000000000009627d6e3742524753ad1f98d024c1917db143978",
        "nonce": "0xe",
        "chainId": "0x14a34"
      },
      "additionalContracts": [],
      "isFixedGasLimit": false
    }
  ],
  "receipts": [
    {
      "status": "0x1",
      "cumulativeGasUsed": "0xda980",
      "logs": [
        {
          "address": "0xc9da4aee367c76b1baa18d8a999fbec91e394aff",
          "topics": [
            "0x9b6a455a5658c11539ae0c585401a323231c71c64ad10427c4dfea5c5f709f4d",
            "0x0000000000000000000000009627d6e3742524753ad1f98d024c1917db143978",
            "0x0000000000000000000000009627d6e3742524753ad1f98d024c1917db143978"
          ],
          "data": "0x",
          "blockHash": "0x64986063ff150457b0796204ba021a46897cfebd1c805339acf4aed2a0f18f6d",
          "blockNumber": "0x21cd0c6",
          "blockTimestamp": "0x694d006c",
          "transactionHash": "0x4487fb73da94672b7a07dab917da8298e1b5c67b2cc36fb12bf0b406cfb61c1b",
          "transactionIndex": "0x5",
          "logIndex": "0x2b",
          "removed": false
        }
      ],
      "logsBloom": "0x00000000000000000000000000000000000000000000000000000000000000000200000000000000000000000000000000000000000000000000000000000000000000000000800000000000000000000000000000000000000000000000000000000000000000000000000000000000000000000000000000000000000000040000000000000000000000000000000000000000000000000000000000000000000008100000000000000000000000000000000000000000000000000000000000000000000000000000000080000000000000000000000000000000800000000000000000000000000000001000000000000000000000000000002000000000",
      "type": "0x2",
      "transactionHash": "0x4487fb73da94672b7a07dab917da8298e1b5c67b2cc36fb12bf0b406cfb61c1b",
      "transactionIndex": "0x5",
      "blockHash": "0x64986063ff150457b0796204ba021a46897cfebd1c805339acf4aed2a0f18f6d",
      "blockNumber": "0x21cd0c6",
      "gasUsed": "0xcabb",
      "effectiveGasPrice": "0x124f80",
      "blobGasUsed": "0x79e0",
      "from": "0x9627d6e3742524753ad1f98d024c1917db143978",
      "to": "0xc9da4aee367c76b1baa18d8a999fbec91e394aff",
      "contractAddress": null,
      "daFootprintGasScalar": "0x138",
      "l1BaseFeeScalar": "0x44d",
      "l1BlobBaseFee": "0x78f3d",
      "l1BlobBaseFeeScalar": "0xa118b",
      "l1Fee": "0x8788b79",
      "l1GasPrice": "0x3b3d90f",
      "l1GasUsed": "0x640"
    }
  ],
  "libraries": [],
  "pending": [],
  "returns": {},
  "timestamp": 1766654058831,
  "chain": 84532,
  "commit": "54d5428"
}