{
  "transactions": [
    {
      "hash": "0xd030a132adf8b82f51f74756d0fc5cf5bb434c05ca711ff3bdf3b73d1b156f13",
      "transactionType": "CALL",
      "contractName": null,
      "contractAddress": "0xc9da4aee367c76b1baa18d8a999fbec91e394aff",
      "function": "giveVoteAccess(address[])",
      "arguments": [
        "[0x1aA686b438F89BC5246673B4aCAAA9B78BaC0Aac, 0x2E71B69c5569b1d3C7e91297E17944aB73F13957, 0x9627D6E3742524753aD1f98d024c1917db143978, 0x6F18634a2E3B0e4213a603D43b7C27151bFF436F, 0x88EC67d6B863366b24BD4F1F3Bd60046b5eE6095, 0xC365565B744f2b8df4a640166e951420341121c0, 0xb8263F94399a43dad2e36D4f80A395AD16C6E453, 0x921f5C6346159b7Af906bfb43AF423C1A311d039, 0x3EA1aF195d70FCA371F458826f9B282E205ccb29, 0x66E39D04EDD024A4a0B1A95cF87aeec360019124, 0x43B369ae0391f54f04D71BeaCB976D38Ca7F0aAe, 0x89E400EbE55a91E146F06C1A28a2E1e431cADa59, 0x9245aD1b010dFb9234C3d57Db23a4012FBfB9807, 0x7d30dF5aa5Fc4405610c10E648D611eAC3934B31]"
      ],
      "transaction": {
        "from": "0x9627d6e3742524753ad1f98d024c1917db143978",
        "to": "0xc9da4aee367c76b1baa18d8a999fbec91e394aff",
        "gas": "0x79bc5",
        "value": "0x0",
        "input": "0x61cd30b10000000000000000000000000000000000000000000000000000000000000020000000000000000000000000000000000000000000000000000000000000000e0000000000000000000000001aa686b438f89bc5246673b4acaaa9b78bac0aac0000000000000000000000002e71b69c5569b1d3c7e91297e17944ab73f139570000000000000000000000009627d6e3742524753ad1f98d024c1917db1439780000000000000000000000006f18634a2e3b0e4213a603d43b7c27151bff436f00000000000000000000000088ec67d6b863366b24bd4f1f3bd60046b5ee6095000000000000000000000000c365565b744f2b8df4a640166e951420341121c0000000000000000000000000b8263f94399a43dad2e36d4f80a395ad16c6e453000000000000000000000000921f5c6346159b7af906bfb43af423c1a311d0390000000000000000000000003ea1af195d70fca371f458826f9b282e205ccb2900000000000000000000000066e39d04edd024a4a0b1a95cf87aeec36001912400000000000000000000000043b369ae0391f54f04d71beacb976d38ca7f0aae00000000000000000000000089e400ebe55a91e146f06c1a28a2e1e431cada590000000000000000000000009245ad1b010dfb9234c3d57db23a4012fbfb98070000000000000000000000007d30df5aa5fc4405610c10e648d611eac3934b31",
        "nonce": "0x11",
        "chainId": "0x14a34"
      },
      "additionalContracts": [],
      "isFixedGasLimit": false
    }
  ],
  "receipts": [
    {
      "status": "0x1",
      "cumulativeGasUsed": "0x84d02f",
      "logs": [
        {
          "address": "0xc9da4aee367c76b1baa18d8a999fbec91e394aff",
          "topics": [
            "0x9b6a455a5658c11539ae0c585401a323231c71c64ad10427c4dfea5c5f709f4d",
            "0x0000000000000000000000009627d6e3742524753ad1f98d024c1917db143978",
            "0x0000000000000000000000001aa686b438f89bc5246673b4acaaa9b78bac0aac"
          ],
          "data": "0x",
          "blockHash": "0x745b0ba401650de136a04e511448b119736245dd90b1657b1251bb287c288ebf",
          "blockNumber": "0x21cd29e",
          "blockTimestamp": "0x694d041c",
          "transactionHash": "0xd030a132adf8b82f51f74756d0fc5cf5bb434c05ca711ff3bdf3b73d1b156f13",
          "transactionIndex": "0xe",
          "logIndex": "0x16",
          "removed": false
        },
        {
          "address": "0xc9da4aee367c76b1baa18d8a999fbec91e394aff",
          "topics": [
            "0x9b6a455a5658c11539ae0c585401a323231c71c64ad10427c4dfea5c5f709f4d",
            "0x0000000000000000000000009627d6e3742524753ad1f98d024c1917db143978",
            "0x0000000000000000000000002e71b69c5569b1d3c7e91297e17944ab73f13957"
          ],
          "data": "0x",
          "blockHash": "0x745b0ba401650de136a04e511448b119736245dd90b1657b1251bb287c288ebf",
          "blockNumber": "0x21cd29e",
          "blockTimestamp": "0x694d041c",
          "transactionHash": "0xd030a132adf8b82f51f74756d0fc5cf5bb434c05ca711ff3bdf3b73d1b156f13",
          "transactionIndex": "0xe",
          "logIndex": "0x17",
          "removed": false
        },
        {
          "address": "0xc9da4aee367c76b1baa18d8a999fbec91e394aff",
          "topics": [
            "0x9b6a455a5658c11539ae0c585401a323231c71c64ad10427c4dfea5c5f709f4d",
            "0x0000000000000000000000009627d6e3742524753ad1f98d024c1917db143978",
            "0x0000000000000000000000006f18634a2e3b0e4213a603d43b7c27151bff436f"
          ],
          "data": "0x",
          "blockHash": "0x745b0ba401650de136a04e511448b119736245dd90b1657b1251bb287c288ebf",
          "blockNumber": "0x21cd29e",
          "blockTimestamp": "0x694d041c",
          "transactionHash": "0xd030a132adf8b82f51f74756d0fc5cf5bb434c05ca711ff3bdf3b73d1b156f13",
          "transactionIndex": "0xe",
          "logIndex": "0x18",
          "removed": false
        },
        {
          "address": "0xc9da4aee367c76b1baa18d8a999fbec91e394aff",
          "topics": [
            "0x9b6a455a5658c11539ae0c585401a323231c71c64ad10427c4dfea5c5f709f4d",
            "0x0000000000000000000000009627d6e3742524753ad1f98d024c1917db143978",
            "0x00000000000000000000000088ec67d6b863366b24bd4f1f3bd60046b5ee6095"
          ],
          "data": "0x",
          "blockHash": "0x745b0ba401650de136a04e511448b119736245dd90b1657b1251bb287c288ebf",
          "blockNumber": "0x21cd29e",
          "blockTimestamp": "0x694d041c",
          "transactionHash": "0xd030a132adf8b82f51f74756d0fc5cf5bb434c05ca711ff3bdf3b73d1b156f13",
          "transactionIndex": "0xe",
          "logIndex": "0x19",
          "removed": false
        },
        {
          "address": "0xc9da4aee367c76b1baa18d8a999fbec91e394aff",
          "topics": [
            "0x9b6a455a5658c11539ae0c585401a323231c71c64ad10427c4dfea5c5f709f4d",
            "0x0000000000000000000000009627d6e3742524753ad1f98d024c1917db143978",
            "0x000000000000000000000000c365565b744f2b8df4a640166e951420341121c0"
          ],
          "data": "0x",
          "blockHash": "0x745b0ba401650de136a04e511448b119736245dd90b1657b1251bb287c288ebf",
          "blockNumber": "0x21cd29e",
          "blockTimestamp": "0x694d041c",
          "transactionHash": "0xd030a132adf8b82f51f74756d0fc5cf5bb434c05ca711ff3bdf3b73d1b156f13",
          "transactionIndex": "0xe",
          "logIndex": "0x1a",
          "removed": false
        },
        {
          "address": "0xc9da4aee367c76b1baa18d8a999fbec91e394aff",
          "topics": [
            "0x9b6a455a5658c11539ae0c585401a323231c71c64ad10427c4dfea5c5f709f4d",
            "0x0000000000000000000000009627d6e3742524753ad1f98d024c1917db143978",
            "0x000000000000000000000000b8263f94399a43dad2e36d4f80a395ad16c6e453"
          ],
          "data": "0x",
          "blockHash": "0x745b0ba401650de136a04e511448b119736245dd90b1657b1251bb287c288ebf",
          "blockNumber": "0x21cd29e",
          "blockTimestamp": "0x694d041c",
          "transactionHash": "0xd030a132adf8b82f51f74756d0fc5cf5bb434c05ca711ff3bdf3b73d1b156f13",
          "transactionIndex": "0xe",
          "logIndex": "0x1b",
          "removed": false
        },
        {
          "address": "0xc9da4aee367c76b1baa18d8a999fbec91e394aff",
          "topics": [
            "0x9b6a455a5658c11539ae0c585401a323231c71c64ad10427c4dfea5c5f709f4d",
            "0x0000000000000000000000009627d6e3742524753ad1f98d024c1917db143978",
            "0x000000000000000000000000921f5c6346159b7af906bfb43af423c1a311d039"
          ],
          "data": "0x",
          "blockHash": "0x745b0ba401650de136a04e511448b119736245dd90b1657b1251bb287c288ebf",
          "blockNumber": "0x21cd29e",
          "blockTimestamp": "0x694d041c",
          "transactionHash": "0xd030a132adf8b82f51f74756d0fc5cf5bb434c05ca711ff3bdf3b73d1b156f13",
          "transactionIndex": "0xe",
          "logIndex": "0x1c",
          "removed": false
        },
        {
          "address": "0xc9da4aee367c76b1baa18d8a999fbec91e394aff",
          "topics": [
            "0x9b6a455a5658c11539ae0c585401a323231c71c64ad10427c4dfea5c5f709f4d",
            "0x0000000000000000000000009627d6e3742524753ad1f98d024c1917db143978",
            "0x0000000000000000000000003ea1af195d70fca371f458826f9b282e205ccb29"
          ],
          "data": "0x",
          "blockHash": "0x745b0ba401650de136a04e511448b119736245dd90b1657b1251bb287c288ebf",
          "blockNumber": "0x21cd29e",
          "blockTimestamp": "0x694d041c",
          "transactionHash": "0xd030a132adf8b82f51f74756d0fc5cf5bb434c05ca711ff3bdf3b73d1b156f13",
          "transactionIndex": "0xe",
          "logIndex": "0x1d",
          "removed": false
        },
        {
          "address": "0xc9da4aee367c76b1baa18d8a999fbec91e394aff",
          "topics": [
            "0x9b6a455a5658c11539ae0c585401a323231c71c64ad10427c4dfea5c5f709f4d",
            "0x0000000000000000000000009627d6e3742524753ad1f98d024c1917db143978",
            "0x00000000000000000000000066e39d04edd024a4a0b1a95cf87aeec360019124"
          ],
          "data": "0x",
          "blockHash": "0x745b0ba401650de136a04e511448b119736245dd90b1657b1251bb287c288ebf",
          "blockNumber": "0x21cd29e",
          "blockTimestamp": "0x694d041c",
          "transactionHash": "0xd030a132adf8b82f51f74756d0fc5cf5bb434c05ca711ff3bdf3b73d1b156f13",
          "transactionIndex": "0xe",
          "logIndex": "0x1e",
          "removed": false
        },
        {
          "address": "0xc9da4aee367c76b1baa18d8a999fbec91e394aff",
          "topics": [
            "0x9b6a455a5658c11539ae0c585401a323231c71c64ad10427c4dfea5c5f709f4d",
            "0x0000000000000000000000009627d6e3742524753ad1f98d024c1917db143978",
            "0x00000000000000000000000043b369ae0391f54f04d71beacb976d38ca7f0aae"
          ],
          "data": "0x",
          "blockHash": "0x745b0ba401650de136a04e511448b119736245dd90b1657b1251bb287c288ebf",
          "blockNumber": "0x21cd29e",
          "blockTimestamp": "0x694d041c",
          "transactionHash": "0xd030a132adf8b82f51f74756d0fc5cf5bb434c05ca711ff3bdf3b73d1b156f13",
          "transactionIndex": "0xe",
          "logIndex": "0x1f",
          "removed": false
        },
        {
          "address": "0xc9da4aee367c76b1baa18d8a999fbec91e394aff",
          "topics": [
            "0x9b6a455a5658c11539ae0c585401a323231c71c64ad10427c4dfea5c5f709f4d",
            "0x0000000000000000000000009627d6e3742524753ad1f98d024c1917db143978",
            "0x00000000000000000000000089e400ebe55a91e146f06c1a28a2e1e431cada59"
          ],
          "data": "0x",
          "blockHash": "0x745b0ba401650de136a04e511448b119736245dd90b1657b1251bb287c288ebf",
          "blockNumber": "0x21cd29e",
          "blockTimestamp": "0x694d041c",
          "transactionHash": "0xd030a132adf8b82f51f74756d0fc5cf5bb434c05ca711ff3bdf3b73d1b156f13",
          "transactionIndex": "0xe",
          "logIndex": "0x20",
          "removed": false
        },
        {
          "address": "0xc9da4aee367c76b1baa18d8a999fbec91e394aff",
          "topics": [
            "0x9b6a455a5658c11539ae0c585401a323231c71c64ad10427c4dfea5c5f709f4d",
            "0x0000000000000000000000009627d6e3742524753ad1f98d024c1917db143978",
            "0x0000000000000000000000009245ad1b010dfb9234c3d57db23a4012fbfb9807"
          ],
          "data": "0x",
          "blockHash": "0x745b0ba401650de136a04e511448b119736245dd90b1657b1251bb287c288ebf",
          "blockNumber": "0x21cd29e",
          "blockTimestamp": "0x694d041c",
          "transactionHash": "0xd030a132adf8b82f51f74756d0fc5cf5bb434c05ca711ff3bdf3b73d1b156f13",
          "transactionIndex": "0xe",
          "logIndex": "0x21",
          "removed": false
        },
        {
          "address": "0xc9da4aee367c76b1baa18d8a999fbec91e394aff",
          "topics": [
            "0x9b6a455a5658c11539ae0c585401a323231c71c64ad10427c4dfea5c5f709f4d",
            "0x0000000000000000000000009627d6e3742524753ad1f98d024c1917db143978",
            "0x0000000000000000000000007d30df5aa5fc4405610c10e648d611eac3934b31"
          ],
          "data": "0x",
          "blockHash": "0x745b0ba401650de136a04e511448b119736245dd90b1657b1251bb287c288ebf",
          "blockNumber": "0x21cd29e",
          "blockTimestamp": "0x694d041c",
          "transactionHash": "0xd030a132adf8b82f51f74756d0fc5cf5bb434c05ca711ff3bdf3b73d1b156f13",
          "transactionIndex": "0xe",
          "logIndex": "0x22",
          "removed": false
        }
      ],
      "logsBloom": "0x000000000002000000000000000001000000000000000004000000000000000002000000800000000000000000000004000000000000000000000000000800a000000000000080000000001000000000000000000000810000100008000000000000000000000000000000000002000000000002000000000000000100002004000000000000000200000000000000000001000000000000100000004300000000000c500000000100000000000400000000000000000000000020000000000000000000000000002000000080004040000000000020000000000000810000000000000002000000000000001020000000108000000000000000003000000000",
      "type": "0x2",
      "transactionHash": "0xd030a132adf8b82f51f74756d0fc5cf5bb434c05ca711ff3bdf3b73d1b156f13",
      "transactionIndex": "0xe",
      "blockHash": "0x745b0ba401650de136a04e511448b119736245dd90b1657b1251bb287c288ebf",
      "blockNumber": "0x21cd29e",
      "gasUsed": "0x58227",
      "effectiveGasPrice": "0x128771",
      "blobGasUsed": "0x1c698",
      "from": "0x9627d6e3742524753ad1f98d024c1917db143978",
      "to": "0xc9da4aee367c76b1baa18d8a999fbec91e394aff",
      "contractAddress": null,
      "daFootprintGasScalar": "0x138",
      "l1BaseFeeScalar": "0x44d",
      "l1BlobBaseFee": "0x165b83",
      "l1BlobBaseFeeScalar": "0xa118b",
      "l1Fee": "0x25aac0de",
      "l1GasPrice": "0x13e80b7",
      "l1GasUsed": "0x175f"
    }
  ],
  "libraries": [],
  "pending": [],
  "returns": {},
  "timestamp": 1766655004288,
  "chain": 84532,
  "commit": "54d5428"
}