{
  "transactions": [
    {
      "hash": "0xe1a46eb2247bd1d21fbaba15b0fe6e595ff66b6491eb05dda84b73cccff5fcb9",
      "transactionType": "CALL",
      "contractName": null,
      "contractAddress": "0x64ce1b561d1125cde7494cdb8a290744b37e57e5",
      "function": "giveVoteAccess(address[])",
      "arguments": [
        "[0x1aA686b438F89BC5246673B4aCAAA9B78BaC0Aac, 0x9627D6E3742524753aD1f98d024c1917db143978]"
      ],
      "transaction": {
        "from": "0x9627d6e3742524753ad1f98d024c1917db143978",
        "to": "0x64ce1b561d1125cde7494cdb8a290744b37e57e5",
        "gas": "0x1a1a5",
        "value": "0x0",
        "input": "0x61cd30b1000000000000000000000000000000000000000000000000000000000000002000000000000000000000000000000000000000000000000000000000000000020000000000000000000000001aa686b438f89bc5246673b4acaaa9b78bac0aac0000000000000000000000009627d6e3742524753ad1f98d024c1917db143978",
        "nonce": "0x2",
        "chainId": "0x14a34"
      },
      "additionalContracts": [],
      "isFixedGasLimit": false
    }
  ],
  "receipts": [
    {
      "status": "0x1",
      "cumulativeGasUsed": "0x4f5c39",
      "logs": [
        {
          "address": "0x64ce1b561d1125cde7494cdb8a290744b37e57e5",
          "topics": [
            "0x9b6a455a5658c11539ae0c585401a323231c71c64ad10427c4dfea5c5f709f4d",
            "0x0000000000000000000000009627d6e3742524753ad1f98d024c1917db143978",
            "0x0000000000000000000000001aa686b438f89bc5246673b4acaaa9b78bac0aac"
          ],
          "data": "0x",
          "blockHash": "0x05e9d6988892629f851ce000b9fa68892cb59a48844373739363d669f417b7e4",
          "blockNumber": "0x21cbe2f",
          "blockTimestamp": "0x694cdb3e",
          "transactionHash": "0xe1a46eb2247bd1d21fbaba15b0fe6e595ff66b6491eb05dda84b73cccff5fcb9",
          "transactionIndex": "0x8",
          "logIndex": "0x17",
          "removed": false
        },
        {
          "address": "0x64ce1b561d1125cde7494cdb8a290744b37e57e5",
          "topics": [
            "0x9b6a455a5658c11539ae0c585401a323231c71c64ad10427c4dfea5c5f709f4d",
            "0x0000000000000000000000009627d6e3742524753ad1f98d024c1917db143978",
            "0x0000000000000000000000009627d6e3742524753ad1f98d024c1917db143978"
          ],
          "data": "0x",
          "blockHash": "0x05e9d6988892629f851ce000b9fa68892cb59a48844373739363d669f417b7e4",
          "blockNumber": "0x21cbe2f",
          "blockTimestamp": "0x694cdb3e",
          "transactionHash": "0xe1a46eb2247bd1d21fbaba15b0fe6e595ff66b6491eb05dda84b73cccff5fcb9",
          "transactionIndex": "0x8",
          "logIndex": "0x18",
          "removed": false
        }
      ],
      "logsBloom": "0x00000000000000000000000000000000000000000000000000000000000000000000000000000000000000000000000000000000000000000000000000000000000000000000800000000000000000000000000000000000000000000000000000000000000000000000000000020000000001000000000000000000000000040000000000200000000000000000000000000000000000000000000000000000000008000200000000000000000000000000000000000000000000000000000000000000000000000000000080000000000000000000000000000000810000000000000000000000000000001000000000100000000000000000000000000000",
      "type": "0x2",
      "transactionHash": "0xe1a46eb2247bd1d21fbaba15b0fe6e595ff66b6491eb05dda84b73cccff5fcb9",
      "transactionIndex": "0x8",
      "blockHash": "0x05e9d6988892629f851ce000b9fa68892cb59a48844373739363d669f417b7e4",
      "blockNumber": "0x21cbe2f",
      "gasUsed": "0x12e5f",
      "effectiveGasPrice": "0x2e260be",
      "blobGasUsed": "0x8880",
      "from": "0x9627d6e3742524753ad1f98d024c1917db143978",
      "to": "0x64ce1b561d1125cde7494cdb8a290744b37e57e5",
      "contractAddress": null,
      "daFootprintGasScalar": "0x138",
      "l1BaseFeeScalar": "0x44d",
      "l1BlobBaseFee": "0x1",
      "l1BlobBaseFeeScalar": "0xa118b",
      "l1Fee": "0x61",
      "l1GasPrice": "0x12",
      "l1GasUsed": "0x702"
    }
  ],
  "libraries": [],
  "pending": [],
  "returns": {},
  "timestamp": 1766644540533,
  "chain": 84532,
  "commit": "689b72a"
}