{
  "transactions": [
    {
      "hash": "0x70be1ff463fdbd262afd6c7c6f712bdf87ef185aafe312fc9690fb8f810de4cc",
      "transactionType": "CALL",
      "contractName": null,
      "contractAddress": "0x5fbdb2315678afecb367f032d93f642f64180aa3",
      "function": "vote(uint256[])",
      "arguments": [
        "[23, 31, 43, 3, 0]"
      ],
      "transaction": {
        "from": "0xf39fd6e51aad88f6f4ce6ab8827279cfffb92266",
        "to": "0x5fbdb2315678afecb367f032d93f642f64180aa3",
        "gas": "0x8a805",
        "value": "0x0",
        "input": "0xce11f2bb000000000000000000000000000000000000000000000000000000000000002000000000000000000000000000000000000000000000000000000000000000050000000000000000000000000000000000000000000000000000000000000017000000000000000000000000000000000000000000000000000000000000001f000000000000000000000000000000000000000000000000000000000000002b00000000000000000000000000000000000000000000000000000000000000030000000000000000000000000000000000000000000000000000000000000000",
        "nonce": "0x2",
        "chainId": "0x7a69"
      },
      "additionalContracts": [],
      "isFixedGasLimit": false
    },
    {
      "hash": "0x09d552f12583f181a99eb12de2f2d9f637b068c9fb7ac3e652549e530b540411",
      "transactionType": "CALL",
      "contractName": null,
      "contractAddress": "0x5fbdb2315678afecb367f032d93f642f64180aa3",
      "function": "vote(uint256[])",
      "arguments": [
        "[23, 31, 43, 3, 0]"
      ],
      "transaction": {
        "from": "0x70997970c51812dc3a010c7d01b50e0d17dc79c8",
        "to": "0x5fbdb2315678afecb367f032d93f642f64180aa3",
        "gas": "0x37d7c",
        "value": "0x0",
        "input": "0xce11f2bb000000000000000000000000000000000000000000000000000000000000002000000000000000000000000000000000000000000000000000000000000000050000000000000000000000000000000000000000000000000000000000000017000000000000000000000000000000000000000000000000000000000000001f000000000000000000000000000000000000000000000000000000000000002b00000000000000000000000000000000000000000000000000000000000000030000000000000000000000000000000000000000000000000000000000000000",
        "nonce": "0x0",
        "chainId": "0x7a69"
      },
      "additionalContracts": [],
      "isFixedGasLimit": false
    },
    {
      "hash": "0xda5e8c97e0a018986ff10a92431e52788c93c18aa60155f8d1621d0826f4d426",
      "transactionType": "CALL",
      "contractName": null,
      "contractAddress": "0x5fbdb2315678afecb367f032d93f642f64180aa3",
      "function": "vote(uint256[])",
      "arguments": [
        "[23, 31, 43, 3, 0]"
      ],
      "transaction": {
        "from": "0x3c44cdddb6a900fa2b585dd299e03d12fa4293bc",
        "to": "0x5fbdb2315678afecb367f032d93f642f64180aa3",
        "gas": "0x37d7c",
        "value": "0x0",
        "input": "0xce11f2bb000000000000000000000000000000000000000000000000000000000000002000000000000000000000000000000000000000000000000000000000000000050000000000000000000000000000000000000000000000000000000000000017000000000000000000000000000000000000000000000000000000000000001f000000000000000000000000000000000000000000000000000000000000002b00000000000000000000000000000000000000000000000000000000000000030000000000000000000000000000000000000000000000000000000000000000",
        "nonce": "0x0",
        "chainId": "0x7a69"
      },
      "additionalContracts": [],
      "isFixedGasLimit": false
    },
    {
      "hash": "0xfe45ff05e8ede343523eae78b8672d883e8f6ace223abe456dda5df9e03c2b2b",
      "transactionType": "CALL",
      "contractName": null,
      "contractAddress": "0x5fbdb2315678afecb367f032d93f642f64180aa3",
      "function": "vote(uint256[])",
      "arguments": [
        "[23, 31, 43, 3, 0]"
      ],
      "transaction": {
        "from": "0x90f79bf6eb2c4f870365e785982e1f101e93b906",
        "to": "0x5fbdb2315678afecb367f032d93f642f64180aa3",
        "gas": "0x37d7c",
        "value": "0x0",
        "input": "0xce11f2bb000000000000000000000000000000000000000000000000000000000000002000000000000000000000000000000000000000000000000000000000000000050000000000000000000000000000000000000000000000000000000000000017000000000000000000000000000000000000000000000000000000000000001f000000000000000000000000000000000000000000000000000000000000002b00000000000000000000000000000000000000000000000000000000000000030000000000000000000000000000000000000000000000000000000000000000",
        "nonce": "0x0",
        "chainId": "0x7a69"
      },
      "additionalContracts": [],
      "isFixedGasLimit": false
    },
    {
      "hash": "0xd961a5c2df21a16a9ed5829a83761a2e9536f204516df3dee3f7a8f4402b449f",
      "transactionType": "CALL",
      "contractName": null,
      "contractAddress": "0x5fbdb2315678afecb367f032d93f642f64180aa3",
      "function": "vote(uint256[])",
      "arguments": [
        "[23, 31, 43, 3, 0]"
      ],
      "transaction": {
        "from": "0x15d34aaf54267db7d7c367839aaf71a00a2c6a65",
        "to": "0x5fbdb2315678afecb367f032d93f642f64180aa3",
        "gas": "0x37d7c",
        "value": "0x0",
        "input": "0xce11f2bb000000000000000000000000000000000000000000000000000000000000002000000000000000000000000000000000000000000000000000000000000000050000000000000000000000000000000000000000000000000000000000000017000000000000000000000000000000000000000000000000000000000000001f000000000000000000000000000000000000000000000000000000000000002b00000000000000000000000000000000000000000000000000000000000000030000000000000000000000000000000000000000000000000000000000000000",
        "nonce": "0x0",
        "chainId": "0x7a69"
      },
      "additionalContracts": [],
      "isFixedGasLimit": false
    }
  ],
  "receipts": [
    {
      "status": "0x1",
      "cumulativeGasUsed": "0x5eb3b",
      "logs": [
        {
          "address": "0x5fbdb2315678afecb367f032d93f642f64180aa3",
          "topics": [
            "0x75877e2c6cd34a033fad8c70f2c37371e79e8d34993d233921d6088ef397ad70",
            "0x000000000000000000000000f39fd6e51aad88f6f4ce6ab8827279cfffb92266"
          ],
          "data": "0x000000000000000000000000000000000000000000000000000000000000002000000000000000000000000000000000000000000000000000000000000000050000000000000000000000000000000000000000000000000000000000000017000000000000000000000000000000000000000000000000000000000000001f000000000000000000000000000000000000000000000000000000000000002b00000000000000000000000000000000000000000000000000000000000000030000000000000000000000000000000000000000000000000000000000000000",
          "blockHash": "0x973b51293131e42333821ef3c04a16f12b4e884c5be55deb911b343b87ee28c0",
          "blockNumber": "0x3",
          "blockTimestamp": "0x6948317e",
          "transactionHash": "0x70be1ff463fdbd262afd6c7c6f712bdf87ef185aafe312fc9690fb8f810de4cc",
          "transactionIndex": "0x0",
          "logIndex": "0x0",
          "removed": false
        }
      ],
      "logsBloom": "0x00000000000000000000000000000080000000000000000000000000000040000000000000000000000000000000000000000000000000000000000000000000000000000000000000040000000000000000000000000000000000000000000000000040000000000000000100000000000000000000000000000000000000000000000000000000000000000000000000000000000000000000000200000000000000000000000000000000000000000000000000000000000000000000000000000040000000200000000000000000000000002000000000000000000000000000000000000000000000000000000000000000000000000000000000000000",
      "type": "0x2",
      "transactionHash": "0x70be1ff463fdbd262afd6c7c6f712bdf87ef185aafe312fc9690fb8f810de4cc",
      "transactionIndex": "0x0",
      "blockHash": "0x973b51293131e42333821ef3c04a16f12b4e884c5be55deb911b343b87ee28c0",
      "blockNumber": "0x3",
      "gasUsed": "0x5eb3b",
      "effectiveGasPrice": "0x2e685095",
      "blobGasPrice": "0x1",
      "from": "0xf39fd6e51aad88f6f4ce6ab8827279cfffb92266",
      "to": "0x5fbdb2315678afecb367f032d93f642f64180aa3",
      "contractAddress": null
    },
    {
      "status": "0x1",
      "cumulativeGasUsed": "0x286df",
      "logs": [
        {
          "address": "0x5fbdb2315678afecb367f032d93f642f64180aa3",
          "topics": [
            "0x75877e2c6cd34a033fad8c70f2c37371e79e8d34993d233921d6088ef397ad70",
            "0x00000000000000000000000070997970c51812dc3a010c7d01b50e0d17dc79c8"
          ],
          "data": "0x000000000000000000000000000000000000000000000000000000000000002000000000000000000000000000000000000000000000000000000000000000050000000000000000000000000000000000000000000000000000000000000017000000000000000000000000000000000000000000000000000000000000001f000000000000000000000000000000000000000000000000000000000000002b00000000000000000000000000000000000000000000000000000000000000030000000000000000000000000000000000000000000000000000000000000000",
          "blockHash": "0x2894ab33b54a4f20a7da57efa51bb0df013ba679b2eaf4604b505ae3bd66a77d",
          "blockNumber": "0x4",
          "blockTimestamp": "0x6948317e",
          "transactionHash": "0x09d552f12583f181a99eb12de2f2d9f637b068c9fb7ac3e652549e530b540411",
          "transactionIndex": "0x0",
          "logIndex": "0x0",
          "removed": false
        }
      ],
      "logsBloom": "0x00000000000000000002000000000080000000000000000000000000000040000000000000000000000000000000000000000000000000000000000000000000000000000000000000040000000000000000000000000000000000000000000000000840000000000000000000000000000000000000000000000000000000000000000000000000000000000000000000000000000000000000000200000000000000000000000000000000000000000000000000000000000000000000000000000040000000000000000000000000000000000000000000000000000000000000000000000000000000000000000001000000000000000000000000000000",
      "type": "0x2",
      "transactionHash": "0x09d552f12583f181a99eb12de2f2d9f637b068c9fb7ac3e652549e530b540411",
      "transactionIndex": "0x0",
      "blockHash": "0x2894ab33b54a4f20a7da57efa51bb0df013ba679b2eaf4604b505ae3bd66a77d",
      "blockNumber": "0x4",
      "gasUsed": "0x286df",
      "effectiveGasPrice": "0x28c1adaf",
      "blobGasPrice": "0x1",
      "from": "0x70997970c51812dc3a010c7d01b50e0d17dc79c8",
      "to": "0x5fbdb2315678afecb367f032d93f642f64180aa3",
      "contractAddress": null
    },
    {
      "status": "0x1",
      "cumulativeGasUsed": "0x286df",
      "logs": [
        {
          "address": "0x5fbdb2315678afecb367f032d93f642f64180aa3",
          "topics": [
            "0x75877e2c6cd34a033fad8c70f2c37371e79e8d34993d233921d6088ef397ad70",
            "0x0000000000000000000000003c44cdddb6a900fa2b585dd299e03d12fa4293bc"
          ],
          "data": "0x000000000000000000000000000000000000000000000000000000000000002000000000000000000000000000000000000000000000000000000000000000050000000000000000000000000000000000000000000000000000000000000017000000000000000000000000000000000000000000000000000000000000001f000000000000000000000000000000000000000000000000000000000000002b00000000000000000000000000000000000000000000000000000000000000030000000000000000000000000000000000000000000000000000000000000000",
          "blockHash": "0xb55edeed1b31148910e9e276ede6e4477ccfa726166d27e0245247754c98ae93",
          "blockNumber": "0x5",
          "blockTimestamp": "0x6948317e",
          "transactionHash": "0xda5e8c97e0a018986ff10a92431e52788c93c18aa60155f8d1621d0826f4d426",
          "transactionIndex": "0x0",
          "logIndex": "0x0",
          "removed": false
        }
      ],
      "logsBloom": "0x00000000000000000000000000000080000000000000000000000000000040000000000000000000000000000000000000000000000000000000000000100000000000000000000000040000000000000000000000000000000000000000000000000040000000000000000000000000000800000000000000000000000000000000000000000000000000000000000000000000000000000000000200000000000000000000200000000000000000000000000000000000000000000000000000000040000000000000000000000000000000000000000000000000000000000000000000000000000000000000000000000000000000000000000000000000",
      "type": "0x2",
      "transactionHash": "0xda5e8c97e0a018986ff10a92431e52788c93c18aa60155f8d1621d0826f4d426",
      "transactionIndex": "0x0",
      "blockHash": "0xb55edeed1b31148910e9e276ede6e4477ccfa726166d27e0245247754c98ae93",
      "blockNumber": "0x5",
      "gasUsed": "0x286df",
      "effectiveGasPrice": "0x23b7ddf7",
      "blobGasPrice": "0x1",
      "from": "0x3c44cdddb6a900fa2b585dd299e03d12fa4293bc",
      "to": "0x5fbdb2315678afecb367f032d93f642f64180aa3",
      "contractAddress": null
    },
    {
      "status": "0x1",
      "cumulativeGasUsed": "0x286df",
      "logs": [
        {
          "address": "0x5fbdb2315678afecb367f032d93f642f64180aa3",
          "topics": [
            "0x75877e2c6cd34a033fad8c70f2c37371e79e8d34993d233921d6088ef397ad70",
            "0x00000000000000000000000090f79bf6eb2c4f870365e785982e1f101e93b906"
          ],
          "data": "0x000000000000000000000000000000000000000000000000000000000000002000000000000000000000000000000000000000000000000000000000000000050000000000000000000000000000000000000000000000000000000000000017000000000000000000000000000000000000000000000000000000000000001f000000000000000000000000000000000000000000000000000000000000002b00000000000000000000000000000000000000000000000000000000000000030000000000000000000000000000000000000000000000000000000000000000",
          "blockHash": "0x908a9f2d8f4360be0d42271f696345419fdd6e154915f14bdd346461fd798ba1",
          "blockNumber": "0x6",
          "blockTimestamp": "0x6948317e",
          "transactionHash": "0xfe45ff05e8ede343523eae78b8672d883e8f6ace223abe456dda5df9e03c2b2b",
          "transactionIndex": "0x0",
          "logIndex": "0x0",
          "removed": false
        }
      ],
      "logsBloom": "0x00000000000000000000000000000080000000000000000000000000000040000000000000000000000000000000000000000000000000000000000000000000000000000000000000040000000000000000000000000000000000000000000000000040000000000000000000000000000000000000000000000000000000000000000000000000000000000000000000000000000000000400000200000000000000000000000000000000000000000000000000000000000000000000000000000040000000000000000000000000400000000000000000000000000000000000000000000000000010000000000000000000000000000000000000000000",
      "type": "0x2",
      "transactionHash": "0xfe45ff05e8ede343523eae78b8672d883e8f6ace223abe456dda5df9e03c2b2b",
      "transactionIndex": "0x0",
      "blockHash": "0x908a9f2d8f4360be0d42271f696345419fdd6e154915f14bdd346461fd798ba1",
      "blockNumber": "0x6",
      "gasUsed": "0x286df",
      "effectiveGasPrice": "0x1f4d808c",
      "blobGasPrice": "0x1",
      "from": "0x90f79bf6eb2c4f870365e785982e1f101e93b906",
      "to": "0x5fbdb2315678afecb367f032d93f642f64180aa3",
      "contractAddress": null
    },
    {
      "status": "0x1",
      "cumulativeGasUsed": "0x286df",
      "logs": [
        {
          "address": "0x5fbdb2315678afecb367f032d93f642f64180aa3",
          "topics": [
            "0x75877e2c6cd34a033fad8c70f2c37371e79e8d34993d233921d6088ef397ad70",
            "0x00000000000000000000000015d34aaf54267db7d7c367839aaf71a00a2c6a65"
          ],
          "data": "0x000000000000000000000000000000000000000000000000000000000000002000000000000000000000000000000000000000000000000000000000000000050000000000000000000000000000000000000000000000000000000000000017000000000000000000000000000000000000000000000000000000000000001f000000000000000000000000000000000000000000000000000000000000002b00000000000000000000000000000000000000000000000000000000000000030000000000000000000000000000000000000000000000000000000000000000",
          "blockHash": "0xb8d95f22f47b637aa7e2811c3173efdb732ee6c08852c12aedc1aa148a3848b9",
          "blockNumber": "0x7",
          "blockTimestamp": "0x6948317e",
          "transactionHash": "0xd961a5c2df21a16a9ed5829a83761a2e9536f204516df3dee3f7a8f4402b449f",
          "transactionIndex": "0x0",
          "logIndex": "0x0",
          "removed": false
        }
      ],
      "logsBloom": "0x00000000040000000000000000000080000000000000000000000000000040000000000000000000000000000000000000000000000000000000000000000000000000000000000000040000000000000000000000000000000000000000000000000040000000000000000000000000000000000000000000000000000000000000000000000000000000000000000000000000000000000000000300000000000000000000000000000000000000000000000000000000000000000000000000000040000000000000000000000000000000000000000000000000000004000000000000000000000000000000000000000000000000000000000000000000",
      "type": "0x2",
      "transactionHash": "0xd961a5c2df21a16a9ed5829a83761a2e9536f204516df3dee3f7a8f4402b449f",
      "transactionIndex": "0x0",
      "blockHash": "0xb8d95f22f47b637aa7e2811c3173efdb732ee6c08852c12aedc1aa148a3848b9",
      "blockNumber": "0x7",
      "gasUsed": "0x286df",
      "effectiveGasPrice": "0x1b6edf79",
      "blobGasPrice": "0x1",
      "from": "0x15d34aaf54267db7d7c367839aaf71a00a2c6a65",
      "to": "0x5fbdb2315678afecb367f032d93f642f64180aa3",
      "contractAddress": null
    }
  ],
  "libraries": [],
  "pending": [],
  "returns": {},
  "timestamp": 1766338942961,
  "chain": 31337,
  "commit": "8b5eb8e"
}