{
  "transactions": [
    {
      "hash": "0xa81b2af035599440266d197c34a79bfc21f4687642c04d396b69b2c4bb99e6c1",
      "transactionType": "CALL",
      "contractName": null,
      "contractAddress": "0x5fbdb2315678afecb367f032d93f642f64180aa3",
      "function": "vote(uint256[])",
      "arguments": [
        "[23, 31, 43, 3, 0]"
      ],
      "transaction": {
        "from": "0xf39fd6e51aad88f6f4ce6ab8827279cfffb92266",
        "to": "0x5fbdb2315678afecb367f032d93f642f64180aa3",
        "gas": "0x81b19",
        "value": "0x0",
        "input": "0xce11f2bb000000000000000000000000000000000000000000000000000000000000002000000000000000000000000000000000000000000000000000000000000000050000000000000000000000000000000000000000000000000000000000000017000000000000000000000000000000000000000000000000000000000000001f000000000000000000000000000000000000000000000000000000000000002b00000000000000000000000000000000000000000000000000000000000000030000000000000000000000000000000000000000000000000000000000000000",
        "nonce": "0x2",
        "chainId": "0x7a69"
      },
      "additionalContracts": [],
      "isFixedGasLimit": false
    },
    {
      "hash": "0x52dba222c0a65a644078d744bddce5712a52d40b42657a2af1783d6871616f2b",
      "transactionType": "CALL",
      "contractName": null,
      "contractAddress": "0x5fbdb2315678afecb367f032d93f642f64180aa3",
      "function": "vote(uint256[])",
      "arguments": [
        "[23, 31, 43, 3, 0]"
      ],
      "transaction": {
        "from": "0x70997970c51812dc3a010c7d01b50e0d17dc79c8",
        "to": "0x5fbdb2315678afecb367f032d93f642f64180aa3",
        "gas": "0x39f30",
        "value": "0x0",
        "input": "0xce11f2bb000000000000000000000000000000000000000000000000000000000000002000000000000000000000000000000000000000000000000000000000000000050000000000000000000000000000000000000000000000000000000000000017000000000000000000000000000000000000000000000000000000000000001f000000000000000000000000000000000000000000000000000000000000002b00000000000000000000000000000000000000000000000000000000000000030000000000000000000000000000000000000000000000000000000000000000",
        "nonce": "0x0",
        "chainId": "0x7a69"
      },
      "additionalContracts": [],
      "isFixedGasLimit": false
    },
    {
      "hash": "0xcb1432054909aa3c3f4bd6d54802b138bd78f609a8d5a518f74fdc62c50eb0b7",
      "transactionType": "CALL",
      "contractName": null,
      "contractAddress": "0x5fbdb2315678afecb367f032d93f642f64180aa3",
      "function": "vote(uint256[])",
      "arguments": [
        "[23, 31, 43, 3, 0]"
      ],
      "transaction": {
        "from": "0x3c44cdddb6a900fa2b585dd299e03d12fa4293bc",
        "to": "0x5fbdb2315678afecb367f032d93f642f64180aa3",
        "gas": "0x39f30",
        "value": "0x0",
        "input": "0xce11f2bb000000000000000000000000000000000000000000000000000000000000002000000000000000000000000000000000000000000000000000000000000000050000000000000000000000000000000000000000000000000000000000000017000000000000000000000000000000000000000000000000000000000000001f000000000000000000000000000000000000000000000000000000000000002b00000000000000000000000000000000000000000000000000000000000000030000000000000000000000000000000000000000000000000000000000000000",
        "nonce": "0x0",
        "chainId": "0x7a69"
      },
      "additionalContracts": [],
      "isFixedGasLimit": false
    },
    {
      "hash": "0x2a708f6b37664826c7a48c4df6854832cef81463ecd4ea2810d46f8cee173295",
      "transactionType": "CALL",
      "contractName": null,
      "contractAddress": "0x5fbdb2315678afecb367f032d93f642f64180aa3",
      "function": "vote(uint256[])",
      "arguments": [
        "[23, 31, 43, 3, 0]"
      ],
      "transaction": {
        "from": "0x90f79bf6eb2c4f870365e785982e1f101e93b906",
        "to": "0x5fbdb2315678afecb367f032d93f642f64180aa3",
        "gas": "0x39f30",
        "value": "0x0",
        "input": "0xce11f2bb000000000000000000000000000000000000000000000000000000000000002000000000000000000000000000000000000000000000000000000000000000050000000000000000000000000000000000000000000000000000000000000017000000000000000000000000000000000000000000000000000000000000001f000000000000000000000000000000000000000000000000000000000000002b00000000000000000000000000000000000000000000000000000000000000030000000000000000000000000000000000000000000000000000000000000000",
        "nonce": "0x0",
        "chainId": "0x7a69"
      },
      "additionalContracts": [],
      "isFixedGasLimit": false
    },
    {
      "hash": "0xcc9cfa7729d3f26d146379a7cb60cfad111e08e1d0bc7c53a997cc5ffe92cf0d",
      "transactionType": "CALL",
      "contractName": null,
      "contractAddress": "0x5fbdb2315678afecb367f032d93f642f64180aa3",
      "function": "vote(uint256[])",
      "arguments": [
        "[23, 31, 43, 3, 0]"
      ],
      "transaction": {
        "from": "0x15d34aaf54267db7d7c367839aaf71a00a2c6a65",
        "to": "0x5fbdb2315678afecb367f032d93f642f64180aa3",
        "gas": "0x39f30",
        "value": "0x0",
        "input": "0xce11f2bb000000000000000000000000000000000000000000000000000000000000002000000000000000000000000000000000000000000000000000000000000000050000000000000000000000000000000000000000000000000000000000000017000000000000000000000000000000000000000000000000000000000000001f000000000000000000000000000000000000000000000000000000000000002b00000000000000000000000000000000000000000000000000000000000000030000000000000000000000000000000000000000000000000000000000000000",
        "nonce": "0x0",
        "chainId": "0x7a69"
      },
      "additionalContracts": [],
      "isFixedGasLimit": false
    }
  ],
  "receipts": [
    {
      "status": "0x1",
      "cumulativeGasUsed": "0x5de56",
      "logs": [],
      "logsBloom": "0x00000000000000000000000000000000000000000000000000000000000000000000000000000000000000000000000000000000000000000000000000000000000000000000000000000000000000000000000000000000000000000000000000000000000000000000000000000000000000000000000000000000000000000000000000000000000000000000000000000000000000000000000000000000000000000000000000000000000000000000000000000000000000000000000000000000000000000000000000000000000000000000000000000000000000000000000000000000000000000000000000000000000000000000000000000000",
      "type": "0x2",
      "transactionHash": "0xa81b2af035599440266d197c34a79bfc21f4687642c04d396b69b2c4bb99e6c1",
      "transactionIndex": "0x0",
      "blockHash": "0xacc3cf93dcc6fc72d6bd35dfde549826b4c1906f5c941e67a2ae5201d2ceb16f",
      "blockNumber": "0x3",
      "gasUsed": "0x5de56",
      "effectiveGasPrice": "0x2e5e80e6",
      "blobGasPrice": "0x1",
      "from": "0xf39fd6e51aad88f6f4ce6ab8827279cfffb92266",
      "to": "0x5fbdb2315678afecb367f032d93f642f64180aa3",
      "contractAddress": null
    },
    {
      "status": "0x1",
      "cumulativeGasUsed": "0x279fa",
      "logs": [],
      "logsBloom": "0x00000000000000000000000000000000000000000000000000000000000000000000000000000000000000000000000000000000000000000000000000000000000000000000000000000000000000000000000000000000000000000000000000000000000000000000000000000000000000000000000000000000000000000000000000000000000000000000000000000000000000000000000000000000000000000000000000000000000000000000000000000000000000000000000000000000000000000000000000000000000000000000000000000000000000000000000000000000000000000000000000000000000000000000000000000000",
      "type": "0x2",
      "transactionHash": "0x52dba222c0a65a644078d744bddce5712a52d40b42657a2af1783d6871616f2b",
      "transactionIndex": "0x0",
      "blockHash": "0x222c8b47738c7e75f1aed43d4f056747a8d6e94e278200e2e12be0d425f5a8e2",
      "blockNumber": "0x4",
      "gasUsed": "0x279fa",
      "effectiveGasPrice": "0x28b8bc40",
      "blobGasPrice": "0x1",
      "from": "0x70997970c51812dc3a010c7d01b50e0d17dc79c8",
      "to": "0x5fbdb2315678afecb367f032d93f642f64180aa3",
      "contractAddress": null
    },
    {
      "status": "0x1",
      "cumulativeGasUsed": "0x279fa",
      "logs": [],
      "logsBloom": "0x00000000000000000000000000000000000000000000000000000000000000000000000000000000000000000000000000000000000000000000000000000000000000000000000000000000000000000000000000000000000000000000000000000000000000000000000000000000000000000000000000000000000000000000000000000000000000000000000000000000000000000000000000000000000000000000000000000000000000000000000000000000000000000000000000000000000000000000000000000000000000000000000000000000000000000000000000000000000000000000000000000000000000000000000000000000",
      "type": "0x2",
      "transactionHash": "0xcb1432054909aa3c3f4bd6d54802b138bd78f609a8d5a518f74fdc62c50eb0b7",
      "transactionIndex": "0x0",
      "blockHash": "0x7745b48c37e3da581c552284c4f80527ee204093c1c5276a680c7cfb93b6828d",
      "blockNumber": "0x5",
      "gasUsed": "0x279fa",
      "effectiveGasPrice": "0x23afbe23",
      "blobGasPrice": "0x1",
      "from": "0x3c44cdddb6a900fa2b585dd299e03d12fa4293bc",
      "to": "0x5fbdb2315678afecb367f032d93f642f64180aa3",
      "contractAddress": null
    },
    {
      "status": "0x1",
      "cumulativeGasUsed": "0x279fa",
      "logs": [],
      "logsBloom": "0x00000000000000000000000000000000000000000000000000000000000000000000000000000000000000000000000000000000000000000000000000000000000000000000000000000000000000000000000000000000000000000000000000000000000000000000000000000000000000000000000000000000000000000000000000000000000000000000000000000000000000000000000000000000000000000000000000000000000000000000000000000000000000000000000000000000000000000000000000000000000000000000000000000000000000000000000000000000000000000000000000000000000000000000000000000000",
      "type": "0x2",
      "transactionHash": "0x2a708f6b37664826c7a48c4df6854832cef81463ecd4ea2810d46f8cee173295",
      "transactionIndex": "0x0",
      "blockHash": "0x1db537a2b1984305b8e843faeea17c7ac434429ac23918395a82e7a33b068874",
      "blockNumber": "0x6",
      "gasUsed": "0x279fa",
      "effectiveGasPrice": "0x1f46217e",
      "blobGasPrice": "0x1",
      "from": "0x90f79bf6eb2c4f870365e785982e1f101e93b906",
      "to": "0x5fbdb2315678afecb367f032d93f642f64180aa3",
      "contractAddress": null
    },
    {
      "status": "0x1",
      "cumulativeGasUsed": "0x279fa",
      "logs": [],
      "logsBloom": "0x00000000000000000000000000000000000000000000000000000000000000000000000000000000000000000000000000000000000000000000000000000000000000000000000000000000000000000000000000000000000000000000000000000000000000000000000000000000000000000000000000000000000000000000000000000000000000000000000000000000000000000000000000000000000000000000000000000000000000000000000000000000000000000000000000000000000000000000000000000000000000000000000000000000000000000000000000000000000000000000000000000000000000000000000000000000",
      "type": "0x2",
      "transactionHash": "0xcc9cfa7729d3f26d146379a7cb60cfad111e08e1d0bc7c53a997cc5ffe92cf0d",
      "transactionIndex": "0x0",
      "blockHash": "0x991d72281e4cca0b7b30e9e9395302815622dc4cce2994fe1e31fa0f4e3a9ad0",
      "blockNumber": "0x7",
      "gasUsed": "0x279fa",
      "effectiveGasPrice": "0x1b683151",
      "blobGasPrice": "0x1",
      "from": "0x15d34aaf54267db7d7c367839aaf71a00a2c6a65",
      "to": "0x5fbdb2315678afecb367f032d93f642f64180aa3",
      "contractAddress": null
    }
  ],
  "libraries": [],
  "pending": [],
  "returns": {},
  "timestamp": 1766316586464,
  "chain": 31337,
  "commit": "4eceffd"
}