{
  "transactions": [
    {
      "hash": "0xa1ce2cfd05701a811f085f396d1459275e4b95f69b20e1395c7b56b3566d72c7",
      "transactionType": "CALL",
      "contractName": null,
      "contractAddress": "0x5fbdb2315678afecb367f032d93f642f64180aa3",
      "function": "giveVoteAccess(address[])",
      "arguments": [
        "[0x70997970C51812dc3A010C7d01b50e0d17dc79C8, 0x3C44CdDdB6a900fa2b585dd299e03d12FA4293BC, 0x90F79bf6EB2c4f870365E785982E1f101E93b906, 0x15d34AAf54267DB7D7c367839AAf71A00a2C6A65, 0x9965507D1a55bcC2695C58ba16FB37d819B0A4dc]"
      ],
      "transaction": {
        "from": "0xf39fd6e51aad88f6f4ce6ab8827279cfffb92266",
        "to": "0x5fbdb2315678afecb367f032d93f642f64180aa3",
        "gas": "0x2fbc6",
        "value": "0x0",
        "input": "0x61cd30b10000000000000000000000000000000000000000000000000000000000000020000000000000000000000000000000000000000000000000000000000000000500000000000000000000000070997970c51812dc3a010c7d01b50e0d17dc79c80000000000000000000000003c44cdddb6a900fa2b585dd299e03d12fa4293bc00000000000000000000000090f79bf6eb2c4f870365e785982e1f101e93b90600000000000000000000000015d34aaf54267db7d7c367839aaf71a00a2c6a650000000000000000000000009965507d1a55bcc2695c58ba16fb37d819b0a4dc",
        "nonce": "0x1",
        "chainId": "0x7a69"
      },
      "additionalContracts": [],
      "isFixedGasLimit": false
    }
  ],
  "receipts": [
    {
      "status": "0x1",
      "cumulativeGasUsed": "0x228f6",
      "logs": [],
      "logsBloom": "0x00000000000000000000000000000000000000000000000000000000000000000000000000000000000000000000000000000000000000000000000000000000000000000000000000000000000000000000000000000000000000000000000000000000000000000000000000000000000000000000000000000000000000000000000000000000000000000000000000000000000000000000000000000000000000000000000000000000000000000000000000000000000000000000000000000000000000000000000000000000000000000000000000000000000000000000000000000000000000000000000000000000000000000000000000000000",
      "type": "0x2",
      "transactionHash": "0xa1ce2cfd05701a811f085f396d1459275e4b95f69b20e1395c7b56b3566d72c7",
      "transactionIndex": "0x0",
      "blockHash": "0x136ca5de9003a6d5798a65367999ebb95688022dac7201488b2946754102e6d7",
      "blockNumber": "0x2",
      "gasUsed": "0x228f6",
      "effectiveGasPrice": "0x34d96902",
      "blobGasPrice": "0x1",
      "from": "0xf39fd6e51aad88f6f4ce6ab8827279cfffb92266",
      "to": "0x5fbdb2315678afecb367f032d93f642f64180aa3",
      "contractAddress": null
    }
  ],
  "libraries": [],
  "pending": [],
  "returns": {},
  "timestamp": 1765954558459,
  "chain": 31337,
  "commit": "07aa84c"
}